{
	"data": {
		"bytecode": {
			"linkReferences": {},
			"object": "608060405234801561001057600080fd5b5061052b806100206000396000f3fe608060405234801561001057600080fd5b506004361061004c5760003560e01c8063097cc63d146100515780630ae67ccc1461007e5780637ca542ac146100a2578063a1bbb2e81461007e575b600080fd5b61006461005f36600461034c565b6100b5565b604051610075959493929190610399565b60405180910390f35b61009261008c3660046103e3565b50600190565b6040519015158152602001610075565b6100646100b036600461034c565b6101e5565b6000806000806000876000036100da57506001935060009250829150819050806101d8565b60006100ef896001600160801b038c1661041b565b9050808b6001600160801b0316101561012e5760009450846101118b8d61044e565b61011c906001610474565b6001600160801b0316995061013b9050565b610138818c61049b565b94505b60026001600160801b038b1661015260018c6104bb565b61015c908c61041b565b610166919061041b565b61017091906104ce565b6101836001600160801b038d168b61041b565b61018d91906104bb565b92506101a28388670de0b6b3a7640000610315565b91506101b78389670de0b6b3a7640000610315565b6101c190846104bb565b92506101cd82846104bb565b925089935060009550505b9550955095509550959050565b60008060008060008760000361020a57506001935060009250829150819050806101d8565b600061021f896001600160801b038c1661041b565b610232906001600160801b038d166104e2565b90506001600160801b0381111561025b57600260008060008095509550955095509550506101d8565b935083600061026a8b8d610474565b6001600160801b0316905060028b6001600160801b031660018c61028e91906104bb565b610298908d61041b565b6102a2919061041b565b6102ac91906104ce565b6102b6828c61041b565b6102c091906104e2565b93506102d58489670de0b6b3a7640000610315565b92506102ea848a670de0b6b3a7640000610315565b6102f490856104e2565b935061030083856104e2565b60009d969c5099509197509395505050505050565b828202831584820484141761032957600080fd5b0492915050565b80356001600160801b038116811461034757600080fd5b919050565b600080600080600060a0868803121561036457600080fd5b61036d86610330565b945061037b60208701610330565b94979496505050506040830135926060810135926080909101359150565b60a08101600387106103bb57634e487b7160e01b600052602160045260246000fd5b9581526001600160801b03948516602082015292909316604083015260608201526080015290565b6000602082840312156103f557600080fd5b6103fe82610330565b9392505050565b634e487b7160e01b600052601160045260246000fd5b808202811582820484141761043257610432610405565b92915050565b634e487b7160e01b600052601260045260246000fd5b60006001600160801b038084168061046857610468610438565b92169190910492915050565b6001600160801b0381811683821601908082111561049457610494610405565b5092915050565b6001600160801b0382811682821603908082111561049457610494610405565b8181038181111561043257610432610405565b6000826104dd576104dd610438565b500490565b808201808211156104325761043261040556fea2646970667358221220e59035fcea5326de2b6377b4d0a29fedcd102c11bd2808612fe193c1e0a3eb2164736f6c63430008110033",
			"opcodes": "PUSH1 0x80 PUSH1 0x40 MSTORE CALLVALUE DUP1 ISZERO PUSH2 0x10 JUMPI PUSH1 0x0 DUP1 REVERT JUMPDEST POP PUSH2 0x52B DUP1 PUSH2 0x20 PUSH1 0x0 CODECOPY PUSH1 0x0 RETURN INVALID PUSH1 0x80 PUSH1 0x40 MSTORE CALLVALUE DUP1 ISZERO PUSH2 0x10 JUMPI PUSH1 0x0 DUP1 REVERT JUMPDEST POP PUSH1 0x4 CALLDATASIZE LT PUSH2 0x4C JUMPI PUSH1 0x0 CALLDATALOAD PUSH1 0xE0 SHR DUP1 PUSH4 0x97CC63D EQ PUSH2 0x51 JUMPI DUP1 PUSH4 0xAE67CCC EQ PUSH2 0x7E JUMPI DUP1 PUSH4 0x7CA542AC EQ PUSH2 0xA2 JUMPI DUP1 PUSH4 0xA1BBB2E8 EQ PUSH2 0x7E JUMPI JUMPDEST PUSH1 0x0 DUP1 REVERT JUMPDEST PUSH2 0x64 PUSH2 0x5F CALLDATASIZE PUSH1 0x4 PUSH2 0x34C JUMP JUMPDEST PUSH2 0xB5 JUMP JUMPDEST PUSH1 0x40 MLOAD PUSH2 0x75 SWAP6 SWAP5 SWAP4 SWAP3 SWAP2 SWAP1 PUSH2 0x399 JUMP JUMPDEST PUSH1 0x40 MLOAD DUP1 SWAP2 SUB SWAP1 RETURN JUMPDEST PUSH2 0x92 PUSH2 0x8C CALLDATASIZE PUSH1 0x4 PUSH2 0x3E3 JUMP JUMPDEST POP PUSH1 0x1 SWAP1 JUMP JUMPDEST PUSH1 0x40 MLOAD SWAP1 ISZERO ISZERO DUP2 MSTORE PUSH1 0x20 ADD PUSH2 0x75 JUMP JUMPDEST PUSH2 0x64 PUSH2 0xB0 CALLDATASIZE PUSH1 0x4 PUSH2 0x34C JUMP JUMPDEST PUSH2 0x1E5 JUMP JUMPDEST PUSH1 0x0 DUP1 PUSH1 0x0 DUP1 PUSH1 0x0 DUP8 PUSH1 0x0 SUB PUSH2 0xDA JUMPI POP PUSH1 0x1 SWAP4 POP PUSH1 0x0 SWAP3 POP DUP3 SWAP2 POP DUP2 SWAP1 POP DUP1 PUSH2 0x1D8 JUMP JUMPDEST PUSH1 0x0 PUSH2 0xEF DUP10 PUSH1 0x1 PUSH1 0x1 PUSH1 0x80 SHL SUB DUP13 AND PUSH2 0x41B JUMP JUMPDEST SWAP1 POP DUP1 DUP12 PUSH1 0x1 PUSH1 0x1 PUSH1 0x80 SHL SUB AND LT ISZERO PUSH2 0x12E JUMPI PUSH1 0x0 SWAP5 POP DUP5 PUSH2 0x111 DUP12 DUP14 PUSH2 0x44E JUMP JUMPDEST PUSH2 0x11C SWAP1 PUSH1 0x1 PUSH2 0x474 JUMP JUMPDEST PUSH1 0x1 PUSH1 0x1 PUSH1 0x80 SHL SUB AND SWAP10 POP PUSH2 0x13B SWAP1 POP JUMP JUMPDEST PUSH2 0x138 DUP2 DUP13 PUSH2 0x49B JUMP JUMPDEST SWAP5 POP JUMPDEST PUSH1 0x2 PUSH1 0x1 PUSH1 0x1 PUSH1 0x80 SHL SUB DUP12 AND PUSH2 0x152 PUSH1 0x1 DUP13 PUSH2 0x4BB JUMP JUMPDEST PUSH2 0x15C SWAP1 DUP13 PUSH2 0x41B JUMP JUMPDEST PUSH2 0x166 SWAP2 SWAP1 PUSH2 0x41B JUMP JUMPDEST PUSH2 0x170 SWAP2 SWAP1 PUSH2 0x4CE JUMP JUMPDEST PUSH2 0x183 PUSH1 0x1 PUSH1 0x1 PUSH1 0x80 SHL SUB DUP14 AND DUP12 PUSH2 0x41B JUMP JUMPDEST PUSH2 0x18D SWAP2 SWAP1 PUSH2 0x4BB JUMP JUMPDEST SWAP3 POP PUSH2 0x1A2 DUP4 DUP9 PUSH8 0xDE0B6B3A7640000 PUSH2 0x315 JUMP JUMPDEST SWAP2 POP PUSH2 0x1B7 DUP4 DUP10 PUSH8 0xDE0B6B3A7640000 PUSH2 0x315 JUMP JUMPDEST PUSH2 0x1C1 SWAP1 DUP5 PUSH2 0x4BB JUMP JUMPDEST SWAP3 POP PUSH2 0x1CD DUP3 DUP5 PUSH2 0x4BB JUMP JUMPDEST SWAP3 POP DUP10 SWAP4 POP PUSH1 0x0 SWAP6 POP POP JUMPDEST SWAP6 POP SWAP6 POP SWAP6 POP SWAP6 POP SWAP6 SWAP1 POP JUMP JUMPDEST PUSH1 0x0 DUP1 PUSH1 0x0 DUP1 PUSH1 0x0 DUP8 PUSH1 0x0 SUB PUSH2 0x20A JUMPI POP PUSH1 0x1 SWAP4 POP PUSH1 0x0 SWAP3 POP DUP3 SWAP2 POP DUP2 SWAP1 POP DUP1 PUSH2 0x1D8 JUMP JUMPDEST PUSH1 0x0 PUSH2 0x21F DUP10 PUSH1 0x1 PUSH1 0x1 PUSH1 0x80 SHL SUB DUP13 AND PUSH2 0x41B JUMP JUMPDEST PUSH2 0x232 SWAP1 PUSH1 0x1 PUSH1 0x1 PUSH1 0x80 SHL SUB DUP14 AND PUSH2 0x4E2 JUMP JUMPDEST SWAP1 POP PUSH1 0x1 PUSH1 0x1 PUSH1 0x80 SHL SUB DUP2 GT ISZERO PUSH2 0x25B JUMPI PUSH1 0x2 PUSH1 0x0 DUP1 PUSH1 0x0 DUP1 SWAP6 POP SWAP6 POP SWAP6 POP SWAP6 POP SWAP6 POP POP PUSH2 0x1D8 JUMP JUMPDEST SWAP4 POP DUP4 PUSH1 0x0 PUSH2 0x26A DUP12 DUP14 PUSH2 0x474 JUMP JUMPDEST PUSH1 0x1 PUSH1 0x1 PUSH1 0x80 SHL SUB AND SWAP1 POP PUSH1 0x2 DUP12 PUSH1 0x1 PUSH1 0x1 PUSH1 0x80 SHL SUB AND PUSH1 0x1 DUP13 PUSH2 0x28E SWAP2 SWAP1 PUSH2 0x4BB JUMP JUMPDEST PUSH2 0x298 SWAP1 DUP14 PUSH2 0x41B JUMP JUMPDEST PUSH2 0x2A2 SWAP2 SWAP1 PUSH2 0x41B JUMP JUMPDEST PUSH2 0x2AC SWAP2 SWAP1 PUSH2 0x4CE JUMP JUMPDEST PUSH2 0x2B6 DUP3 DUP13 PUSH2 0x41B JUMP JUMPDEST PUSH2 0x2C0 SWAP2 SWAP1 PUSH2 0x4E2 JUMP JUMPDEST SWAP4 POP PUSH2 0x2D5 DUP5 DUP10 PUSH8 0xDE0B6B3A7640000 PUSH2 0x315 JUMP JUMPDEST SWAP3 POP PUSH2 0x2EA DUP5 DUP11 PUSH8 0xDE0B6B3A7640000 PUSH2 0x315 JUMP JUMPDEST PUSH2 0x2F4 SWAP1 DUP6 PUSH2 0x4E2 JUMP JUMPDEST SWAP4 POP PUSH2 0x300 DUP4 DUP6 PUSH2 0x4E2 JUMP JUMPDEST PUSH1 0x0 SWAP14 SWAP7 SWAP13 POP SWAP10 POP SWAP2 SWAP8 POP SWAP4 SWAP6 POP POP POP POP POP POP JUMP JUMPDEST DUP3 DUP3 MUL DUP4 ISZERO DUP5 DUP3 DIV DUP5 EQ OR PUSH2 0x329 JUMPI PUSH1 0x0 DUP1 REVERT JUMPDEST DIV SWAP3 SWAP2 POP POP JUMP JUMPDEST DUP1 CALLDATALOAD PUSH1 0x1 PUSH1 0x1 PUSH1 0x80 SHL SUB DUP2 AND DUP2 EQ PUSH2 0x347 JUMPI PUSH1 0x0 DUP1 REVERT JUMPDEST SWAP2 SWAP1 POP JUMP JUMPDEST PUSH1 0x0 DUP1 PUSH1 0x0 DUP1 PUSH1 0x0 PUSH1 0xA0 DUP7 DUP9 SUB SLT ISZERO PUSH2 0x364 JUMPI PUSH1 0x0 DUP1 REVERT JUMPDEST PUSH2 0x36D DUP7 PUSH2 0x330 JUMP JUMPDEST SWAP5 POP PUSH2 0x37B PUSH1 0x20 DUP8 ADD PUSH2 0x330 JUMP JUMPDEST SWAP5 SWAP8 SWAP5 SWAP7 POP POP POP POP PUSH1 0x40 DUP4 ADD CALLDATALOAD SWAP3 PUSH1 0x60 DUP2 ADD CALLDATALOAD SWAP3 PUSH1 0x80 SWAP1 SWAP2 ADD CALLDATALOAD SWAP2 POP JUMP JUMPDEST PUSH1 0xA0 DUP2 ADD PUSH1 0x3 DUP8 LT PUSH2 0x3BB JUMPI PUSH4 0x4E487B71 PUSH1 0xE0 SHL PUSH1 0x0 MSTORE PUSH1 0x21 PUSH1 0x4 MSTORE PUSH1 0x24 PUSH1 0x0 REVERT JUMPDEST SWAP6 DUP2 MSTORE PUSH1 0x1 PUSH1 0x1 PUSH1 0x80 SHL SUB SWAP5 DUP6 AND PUSH1 0x20 DUP3 ADD MSTORE SWAP3 SWAP1 SWAP4 AND PUSH1 0x40 DUP4 ADD MSTORE PUSH1 0x60 DUP3 ADD MSTORE PUSH1 0x80 ADD MSTORE SWAP1 JUMP JUMPDEST PUSH1 0x0 PUSH1 0x20 DUP3 DUP5 SUB SLT ISZERO PUSH2 0x3F5 JUMPI PUSH1 0x0 DUP1 REVERT JUMPDEST PUSH2 0x3FE DUP3 PUSH2 0x330 JUMP JUMPDEST SWAP4 SWAP3 POP POP POP JUMP JUMPDEST PUSH4 0x4E487B71 PUSH1 0xE0 SHL PUSH1 0x0 MSTORE PUSH1 0x11 PUSH1 0x4 MSTORE PUSH1 0x24 PUSH1 0x0 REVERT JUMPDEST DUP1 DUP3 MUL DUP2 ISZERO DUP3 DUP3 DIV DUP5 EQ OR PUSH2 0x432 JUMPI PUSH2 0x432 PUSH2 0x405 JUMP JUMPDEST SWAP3 SWAP2 POP POP JUMP JUMPDEST PUSH4 0x4E487B71 PUSH1 0xE0 SHL PUSH1 0x0 MSTORE PUSH1 0x12 PUSH1 0x4 MSTORE PUSH1 0x24 PUSH1 0x0 REVERT JUMPDEST PUSH1 0x0 PUSH1 0x1 PUSH1 0x1 PUSH1 0x80 SHL SUB DUP1 DUP5 AND DUP1 PUSH2 0x468 JUMPI PUSH2 0x468 PUSH2 0x438 JUMP JUMPDEST SWAP3 AND SWAP2 SWAP1 SWAP2 DIV SWAP3 SWAP2 POP POP JUMP JUMPDEST PUSH1 0x1 PUSH1 0x1 PUSH1 0x80 SHL SUB DUP2 DUP2 AND DUP4 DUP3 AND ADD SWAP1 DUP1 DUP3 GT ISZERO PUSH2 0x494 JUMPI PUSH2 0x494 PUSH2 0x405 JUMP JUMPDEST POP SWAP3 SWAP2 POP POP JUMP JUMPDEST PUSH1 0x1 PUSH1 0x1 PUSH1 0x80 SHL SUB DUP3 DUP2 AND DUP3 DUP3 AND SUB SWAP1 DUP1 DUP3 GT ISZERO PUSH2 0x494 JUMPI PUSH2 0x494 PUSH2 0x405 JUMP JUMPDEST DUP2 DUP2 SUB DUP2 DUP2 GT ISZERO PUSH2 0x432 JUMPI PUSH2 0x432 PUSH2 0x405 JUMP JUMPDEST PUSH1 0x0 DUP3 PUSH2 0x4DD JUMPI PUSH2 0x4DD PUSH2 0x438 JUMP JUMPDEST POP DIV SWAP1 JUMP JUMPDEST DUP1 DUP3 ADD DUP1 DUP3 GT ISZERO PUSH2 0x432 JUMPI PUSH2 0x432 PUSH2 0x405 JUMP INVALID LOG2 PUSH5 0x6970667358 0x22 SLT KECCAK256 0xE5 SWAP1 CALLDATALOAD 0xFC 0xEA MSTORE8 0x26 0xDE 0x2B PUSH4 0x77B4D0A2 SWAP16 0xED 0xCD LT 0x2C GT 0xBD 0x28 ADDMOD PUSH2 0x2FE1 SWAP4 0xC1 0xE0 LOG3 0xEB 0x21 PUSH5 0x736F6C6343 STOP ADDMOD GT STOP CALLER "
		},
		"gasEstimates": {
			"creation": {
				"codeDepositCost": "264600",
				"executionCost": "306",
				"totalCost": "264906"
			},
			"external": {
				"getBuyInfo(uint128,uint128,uint256,uint256,uint256)": "infinite",
				"getSellInfo(uint128,uint128,uint256,uint256,uint256)": "infinite",
				"validateDelta(uint128)": "361",
				"validateSpotPrice(uint128)": "405"
			}
		},
		"methodIdentifiers": {
			"getBuyInfo(uint128,uint128,uint256,uint256,uint256)": "7ca542ac",
			"getSellInfo(uint128,uint128,uint256,uint256,uint256)": "097cc63d",
			"validateDelta(uint128)": "0ae67ccc",
			"validateSpotPrice(uint128)": "a1bbb2e8"
		}
	},
	"abi": [
		{
			"inputs": [
				{
					"internalType": "uint128",
					"name": "spotPrice",
					"type": "uint128"
				},
				{
					"internalType": "uint128",
					"name": "delta",
					"type": "uint128"
				},
				{
					"internalType": "uint256",
					"name": "numItems",
					"type": "uint256"
				},
				{
					"internalType": "uint256",
					"name": "feeMultiplier",
					"type": "uint256"
				},
				{
					"internalType": "uint256",
					"name": "protocolFeeMultiplier",
					"type": "uint256"
				}
			],
			"name": "getBuyInfo",
			"outputs": [
				{
					"internalType": "enum CurveErrorCodes.Error",
					"name": "error",
					"type": "uint8"
				},
				{
					"internalType": "uint128",
					"name": "newSpotPrice",
					"type": "uint128"
				},
				{
					"internalType": "uint128",
					"name": "newDelta",
					"type": "uint128"
				},
				{
					"internalType": "uint256",
					"name": "inputValue",
					"type": "uint256"
				},
				{
					"internalType": "uint256",
					"name": "protocolFee",
					"type": "uint256"
				}
			],
			"stateMutability": "pure",
			"type": "function"
		},
		{
			"inputs": [
				{
					"internalType": "uint128",
					"name": "spotPrice",
					"type": "uint128"
				},
				{
					"internalType": "uint128",
					"name": "delta",
					"type": "uint128"
				},
				{
					"internalType": "uint256",
					"name": "numItems",
					"type": "uint256"
				},
				{
					"internalType": "uint256",
					"name": "feeMultiplier",
					"type": "uint256"
				},
				{
					"internalType": "uint256",
					"name": "protocolFeeMultiplier",
					"type": "uint256"
				}
			],
			"name": "getSellInfo",
			"outputs": [
				{
					"internalType": "enum CurveErrorCodes.Error",
					"name": "error",
					"type": "uint8"
				},
				{
					"internalType": "uint128",
					"name": "newSpotPrice",
					"type": "uint128"
				},
				{
					"internalType": "uint128",
					"name": "newDelta",
					"type": "uint128"
				},
				{
					"internalType": "uint256",
					"name": "outputValue",
					"type": "uint256"
				},
				{
					"internalType": "uint256",
					"name": "protocolFee",
					"type": "uint256"
				}
			],
			"stateMutability": "pure",
			"type": "function"
		},
		{
			"inputs": [
				{
					"internalType": "uint128",
					"name": "",
					"type": "uint128"
				}
			],
			"name": "validateDelta",
			"outputs": [
				{
					"internalType": "bool",
					"name": "valid",
					"type": "bool"
				}
			],
			"stateMutability": "pure",
			"type": "function"
		},
		{
			"inputs": [
				{
					"internalType": "uint128",
					"name": "",
					"type": "uint128"
				}
			],
			"name": "validateSpotPrice",
			"outputs": [
				{
					"internalType": "bool",
					"name": "",
					"type": "bool"
				}
			],
			"stateMutability": "pure",
			"type": "function"
		}
	]
}