{
	"src/bonding-curves/LinearCurve.sol": {
		"LinearCurve": {
			"abi": [
				{
					"inputs": [
						{
							"internalType": "uint128",
							"name": "spotPrice",
							"type": "uint128"
						},
						{
							"internalType": "uint128",
							"name": "delta",
							"type": "uint128"
						},
						{
							"internalType": "uint256",
							"name": "numItems",
							"type": "uint256"
						},
						{
							"internalType": "uint256",
							"name": "feeMultiplier",
							"type": "uint256"
						},
						{
							"internalType": "uint256",
							"name": "protocolFeeMultiplier",
							"type": "uint256"
						}
					],
					"name": "getBuyInfo",
					"outputs": [
						{
							"internalType": "enum CurveErrorCodes.Error",
							"name": "error",
							"type": "uint8"
						},
						{
							"internalType": "uint128",
							"name": "newSpotPrice",
							"type": "uint128"
						},
						{
							"internalType": "uint128",
							"name": "newDelta",
							"type": "uint128"
						},
						{
							"internalType": "uint256",
							"name": "inputValue",
							"type": "uint256"
						},
						{
							"internalType": "uint256",
							"name": "protocolFee",
							"type": "uint256"
						}
					],
					"stateMutability": "pure",
					"type": "function"
				},
				{
					"inputs": [
						{
							"internalType": "uint128",
							"name": "spotPrice",
							"type": "uint128"
						},
						{
							"internalType": "uint128",
							"name": "delta",
							"type": "uint128"
						},
						{
							"internalType": "uint256",
							"name": "numItems",
							"type": "uint256"
						},
						{
							"internalType": "uint256",
							"name": "feeMultiplier",
							"type": "uint256"
						},
						{
							"internalType": "uint256",
							"name": "protocolFeeMultiplier",
							"type": "uint256"
						}
					],
					"name": "getSellInfo",
					"outputs": [
						{
							"internalType": "enum CurveErrorCodes.Error",
							"name": "error",
							"type": "uint8"
						},
						{
							"internalType": "uint128",
							"name": "newSpotPrice",
							"type": "uint128"
						},
						{
							"internalType": "uint128",
							"name": "newDelta",
							"type": "uint128"
						},
						{
							"internalType": "uint256",
							"name": "outputValue",
							"type": "uint256"
						},
						{
							"internalType": "uint256",
							"name": "protocolFee",
							"type": "uint256"
						}
					],
					"stateMutability": "pure",
					"type": "function"
				},
				{
					"inputs": [
						{
							"internalType": "uint128",
							"name": "",
							"type": "uint128"
						}
					],
					"name": "validateDelta",
					"outputs": [
						{
							"internalType": "bool",
							"name": "valid",
							"type": "bool"
						}
					],
					"stateMutability": "pure",
					"type": "function"
				},
				{
					"inputs": [
						{
							"internalType": "uint128",
							"name": "",
							"type": "uint128"
						}
					],
					"name": "validateSpotPrice",
					"outputs": [
						{
							"internalType": "bool",
							"name": "",
							"type": "bool"
						}
					],
					"stateMutability": "pure",
					"type": "function"
				}
			],
			"devdoc": {
				"kind": "dev",
				"methods": {
					"getBuyInfo(uint128,uint128,uint256,uint256,uint256)": {
						"details": "See {ICurve-getBuyInfo}"
					},
					"getSellInfo(uint128,uint128,uint256,uint256,uint256)": {
						"details": "See {ICurve-getSellInfo}"
					},
					"validateDelta(uint128)": {
						"details": "See {ICurve-validateDelta}"
					},
					"validateSpotPrice(uint128)": {
						"details": "See {ICurve-validateSpotPrice}"
					}
				},
				"version": 1
			},
			"evm": {
				"assembly": "    /* \"src/bonding-curves/LinearCurve.sol\":401:6389  contract LinearCurve is ICurve, CurveErrorCodes {... */\n  mstore(0x40, 0x80)\n  callvalue\n  dup1\n  iszero\n  tag_1\n  jumpi\n  0x00\n  dup1\n  revert\ntag_1:\n  pop\n  dataSize(sub_0)\n  dup1\n  dataOffset(sub_0)\n  0x00\n  codecopy\n  0x00\n  return\nstop\n\nsub_0: assembly {\n        /* \"src/bonding-curves/LinearCurve.sol\":401:6389  contract LinearCurve is ICurve, CurveErrorCodes {... */\n      mstore(0x40, 0x80)\n      callvalue\n      dup1\n      iszero\n      tag_1\n      jumpi\n      0x00\n      dup1\n      revert\n    tag_1:\n      pop\n      jumpi(tag_2, lt(calldatasize, 0x04))\n      shr(0xe0, calldataload(0x00))\n      dup1\n      0x097cc63d\n      eq\n      tag_3\n      jumpi\n      dup1\n      0x0ae67ccc\n      eq\n      tag_4\n      jumpi\n      dup1\n      0x7ca542ac\n      eq\n      tag_5\n      jumpi\n      dup1\n      0xa1bbb2e8\n      eq\n      tag_4\n      jumpi\n    tag_2:\n      0x00\n      dup1\n      revert\n        /* \"src/bonding-curves/LinearCurve.sol\":3765:6387  function getSellInfo(... */\n    tag_3:\n      tag_7\n      tag_8\n      calldatasize\n      0x04\n      tag_9\n      jump\t// in\n    tag_8:\n      tag_10\n      jump\t// in\n    tag_7:\n      mload(0x40)\n      tag_11\n      swap6\n      swap5\n      swap4\n      swap3\n      swap2\n      swap1\n      tag_12\n      jump\t// in\n    tag_11:\n      mload(0x40)\n      dup1\n      swap2\n      sub\n      swap1\n      return\n        /* \"src/bonding-curves/LinearCurve.sol\":553:742  function validateDelta(... */\n    tag_4:\n      tag_13\n      tag_14\n      calldatasize\n      0x04\n      tag_15\n      jump\t// in\n    tag_14:\n      pop\n        /* \"src/bonding-curves/LinearCurve.sol\":731:735  true */\n      0x01\n      swap1\n        /* \"src/bonding-curves/LinearCurve.sol\":553:742  function validateDelta(... */\n      jump\n    tag_13:\n      mload(0x40)\n        /* \"#utility.yul\":1733:1747   */\n      swap1\n      iszero\n        /* \"#utility.yul\":1726:1748   */\n      iszero\n        /* \"#utility.yul\":1708:1749   */\n      dup2\n      mstore\n        /* \"#utility.yul\":1696:1698   */\n      0x20\n        /* \"#utility.yul\":1681:1699   */\n      add\n        /* \"src/bonding-curves/LinearCurve.sol\":553:742  function validateDelta(... */\n      tag_11\n        /* \"#utility.yul\":1568:1755   */\n      jump\n        /* \"src/bonding-curves/LinearCurve.sol\":1068:3705  function getBuyInfo(... */\n    tag_5:\n      tag_7\n      tag_20\n      calldatasize\n      0x04\n      tag_9\n      jump\t// in\n    tag_20:\n      tag_21\n      jump\t// in\n        /* \"src/bonding-curves/LinearCurve.sol\":3765:6387  function getSellInfo(... */\n    tag_10:\n        /* \"src/bonding-curves/LinearCurve.sol\":4015:4026  Error error */\n      0x00\n        /* \"src/bonding-curves/LinearCurve.sol\":4040:4060  uint128 newSpotPrice */\n      dup1\n        /* \"src/bonding-curves/LinearCurve.sol\":4074:4090  uint128 newDelta */\n      0x00\n        /* \"src/bonding-curves/LinearCurve.sol\":4104:4123  uint256 outputValue */\n      dup1\n        /* \"src/bonding-curves/LinearCurve.sol\":4137:4156  uint256 protocolFee */\n      0x00\n        /* \"src/bonding-curves/LinearCurve.sol\":4249:4257  numItems */\n      dup8\n        /* \"src/bonding-curves/LinearCurve.sol\":4261:4262  0 */\n      0x00\n        /* \"src/bonding-curves/LinearCurve.sol\":4249:4262  numItems == 0 */\n      sub\n        /* \"src/bonding-curves/LinearCurve.sol\":4245:4332  if (numItems == 0) {... */\n      tag_28\n      jumpi\n      pop\n        /* \"src/bonding-curves/LinearCurve.sol\":4286:4308  Error.INVALID_NUMITEMS */\n      0x01\n      swap4\n      pop\n        /* \"src/bonding-curves/LinearCurve.sol\":4310:4311  0 */\n      0x00\n      swap3\n      pop\n      dup3\n      swap2\n      pop\n      dup2\n      swap1\n      pop\n      dup1\n        /* \"src/bonding-curves/LinearCurve.sol\":4278:4321  return (Error.INVALID_NUMITEMS, 0, 0, 0, 0) */\n      jump(tag_27)\n        /* \"src/bonding-curves/LinearCurve.sol\":4245:4332  if (numItems == 0) {... */\n    tag_28:\n        /* \"src/bonding-curves/LinearCurve.sol\":4428:4454  uint256 totalPriceDecrease */\n      0x00\n        /* \"src/bonding-curves/LinearCurve.sol\":4457:4473  delta * numItems */\n      tag_29\n        /* \"src/bonding-curves/LinearCurve.sol\":4465:4473  numItems */\n      dup10\n      sub(shl(0x80, 0x01), 0x01)\n        /* \"src/bonding-curves/LinearCurve.sol\":4457:4473  delta * numItems */\n      dup13\n      and\n      tag_30\n      jump\t// in\n    tag_29:\n        /* \"src/bonding-curves/LinearCurve.sol\":4428:4473  uint256 totalPriceDecrease = delta * numItems */\n      swap1\n      pop\n        /* \"src/bonding-curves/LinearCurve.sol\":4607:4625  totalPriceDecrease */\n      dup1\n        /* \"src/bonding-curves/LinearCurve.sol\":4595:4604  spotPrice */\n      dup12\n      sub(shl(0x80, 0x01), 0x01)\n        /* \"src/bonding-curves/LinearCurve.sol\":4595:4625  spotPrice < totalPriceDecrease */\n      and\n      lt\n        /* \"src/bonding-curves/LinearCurve.sol\":4591:5430  if (spotPrice < totalPriceDecrease) {... */\n      iszero\n      tag_31\n      jumpi\n        /* \"src/bonding-curves/LinearCurve.sol\":4742:4743  0 */\n      0x00\n      swap5\n      pop\n      dup5\n        /* \"src/bonding-curves/LinearCurve.sol\":4911:4928  spotPrice / delta */\n      tag_32\n        /* \"src/bonding-curves/LinearCurve.sol\":4923:4928  delta */\n      dup12\n        /* \"src/bonding-curves/LinearCurve.sol\":4911:4920  spotPrice */\n      dup14\n        /* \"src/bonding-curves/LinearCurve.sol\":4911:4928  spotPrice / delta */\n      tag_33\n      jump\t// in\n    tag_32:\n        /* \"src/bonding-curves/LinearCurve.sol\":4911:4932  spotPrice / delta + 1 */\n      tag_34\n      swap1\n        /* \"src/bonding-curves/LinearCurve.sol\":4931:4932  1 */\n      0x01\n        /* \"src/bonding-curves/LinearCurve.sol\":4911:4932  spotPrice / delta + 1 */\n      tag_35\n      jump\t// in\n    tag_34:\n      sub(shl(0x80, 0x01), 0x01)\n        /* \"src/bonding-curves/LinearCurve.sol\":4879:4932  uint256 numItemsTillZeroPrice = spotPrice / delta + 1 */\n      and\n      swap10\n      pop\n        /* \"src/bonding-curves/LinearCurve.sol\":4591:5430  if (spotPrice < totalPriceDecrease) {... */\n      tag_36\n      swap1\n      pop\n      jump\n    tag_31:\n        /* \"src/bonding-curves/LinearCurve.sol\":5380:5419  spotPrice - uint128(totalPriceDecrease) */\n      tag_37\n        /* \"src/bonding-curves/LinearCurve.sol\":5400:5418  totalPriceDecrease */\n      dup2\n        /* \"src/bonding-curves/LinearCurve.sol\":5380:5389  spotPrice */\n      dup13\n        /* \"src/bonding-curves/LinearCurve.sol\":5380:5419  spotPrice - uint128(totalPriceDecrease) */\n      tag_38\n      jump\t// in\n    tag_37:\n        /* \"src/bonding-curves/LinearCurve.sol\":5365:5419  newSpotPrice = spotPrice - uint128(totalPriceDecrease) */\n      swap5\n      pop\n        /* \"src/bonding-curves/LinearCurve.sol\":4591:5430  if (spotPrice < totalPriceDecrease) {... */\n    tag_36:\n        /* \"src/bonding-curves/LinearCurve.sol\":5799:5800  2 */\n      0x02\n      sub(shl(0x80, 0x01), 0x01)\n        /* \"src/bonding-curves/LinearCurve.sol\":5750:5783  numItems * (numItems - 1) * delta */\n      dup12\n      and\n        /* \"src/bonding-curves/LinearCurve.sol\":5762:5774  numItems - 1 */\n      tag_39\n        /* \"src/bonding-curves/LinearCurve.sol\":5773:5774  1 */\n      0x01\n        /* \"src/bonding-curves/LinearCurve.sol\":5762:5770  numItems */\n      dup13\n        /* \"src/bonding-curves/LinearCurve.sol\":5762:5774  numItems - 1 */\n      tag_40\n      jump\t// in\n    tag_39:\n        /* \"src/bonding-curves/LinearCurve.sol\":5750:5775  numItems * (numItems - 1) */\n      tag_41\n      swap1\n        /* \"src/bonding-curves/LinearCurve.sol\":5750:5758  numItems */\n      dup13\n        /* \"src/bonding-curves/LinearCurve.sol\":5750:5775  numItems * (numItems - 1) */\n      tag_30\n      jump\t// in\n    tag_41:\n        /* \"src/bonding-curves/LinearCurve.sol\":5750:5783  numItems * (numItems - 1) * delta */\n      tag_42\n      swap2\n      swap1\n      tag_30\n      jump\t// in\n    tag_42:\n        /* \"src/bonding-curves/LinearCurve.sol\":5749:5800  (numItems * (numItems - 1) * delta) /... */\n      tag_43\n      swap2\n      swap1\n      tag_44\n      jump\t// in\n    tag_43:\n        /* \"src/bonding-curves/LinearCurve.sol\":5702:5734  numItems *... */\n      tag_45\n      sub(shl(0x80, 0x01), 0x01)\n      dup14\n      and\n        /* \"src/bonding-curves/LinearCurve.sol\":5702:5710  numItems */\n      dup12\n        /* \"src/bonding-curves/LinearCurve.sol\":5702:5734  numItems *... */\n      tag_30\n      jump\t// in\n    tag_45:\n        /* \"src/bonding-curves/LinearCurve.sol\":5702:5800  numItems *... */\n      tag_46\n      swap2\n      swap1\n      tag_40\n      jump\t// in\n    tag_46:\n        /* \"src/bonding-curves/LinearCurve.sol\":5676:5800  outputValue =... */\n      swap3\n      pop\n        /* \"src/bonding-curves/LinearCurve.sol\":5903:5999  outputValue.fmul(... */\n      tag_47\n        /* \"src/bonding-curves/LinearCurve.sol\":5676:5800  outputValue =... */\n      dup4\n        /* \"src/bonding-curves/LinearCurve.sol\":5933:5954  protocolFeeMultiplier */\n      dup9\n        /* \"lib/solmate/src/utils/FixedPointMathLib.sol\":636:640  1e18 */\n      0x0de0b6b3a7640000\n        /* \"src/bonding-curves/LinearCurve.sol\":5903:5919  outputValue.fmul */\n      tag_48\n        /* \"src/bonding-curves/LinearCurve.sol\":5903:5999  outputValue.fmul(... */\n      jump\t// in\n    tag_47:\n        /* \"src/bonding-curves/LinearCurve.sol\":5889:5999  protocolFee = outputValue.fmul(... */\n      swap2\n      pop\n        /* \"src/bonding-curves/LinearCurve.sol\":6084:6138  outputValue.fmul(feeMultiplier, FixedPointMathLib.WAD) */\n      tag_49\n        /* \"src/bonding-curves/LinearCurve.sol\":6084:6095  outputValue */\n      dup4\n        /* \"src/bonding-curves/LinearCurve.sol\":6101:6114  feeMultiplier */\n      dup10\n        /* \"lib/solmate/src/utils/FixedPointMathLib.sol\":636:640  1e18 */\n      0x0de0b6b3a7640000\n        /* \"src/bonding-curves/LinearCurve.sol\":6084:6100  outputValue.fmul */\n      tag_48\n        /* \"src/bonding-curves/LinearCurve.sol\":6084:6138  outputValue.fmul(feeMultiplier, FixedPointMathLib.WAD) */\n      jump\t// in\n    tag_49:\n        /* \"src/bonding-curves/LinearCurve.sol\":6069:6138  outputValue -= outputValue.fmul(feeMultiplier, FixedPointMathLib.WAD) */\n      tag_50\n      swap1\n      dup5\n      tag_40\n      jump\t// in\n    tag_50:\n      swap3\n      pop\n        /* \"src/bonding-curves/LinearCurve.sol\":6223:6249  outputValue -= protocolFee */\n      tag_51\n        /* \"src/bonding-curves/LinearCurve.sol\":6238:6249  protocolFee */\n      dup3\n        /* \"src/bonding-curves/LinearCurve.sol\":6069:6138  outputValue -= outputValue.fmul(feeMultiplier, FixedPointMathLib.WAD) */\n      dup5\n        /* \"src/bonding-curves/LinearCurve.sol\":6223:6249  outputValue -= protocolFee */\n      tag_40\n      jump\t// in\n    tag_51:\n      swap3\n      pop\n        /* \"src/bonding-curves/LinearCurve.sol\":6302:6307  delta */\n      dup10\n        /* \"src/bonding-curves/LinearCurve.sol\":6291:6307  newDelta = delta */\n      swap4\n      pop\n        /* \"src/bonding-curves/LinearCurve.sol\":6372:6380  Error.OK */\n      0x00\n        /* \"src/bonding-curves/LinearCurve.sol\":6364:6380  error = Error.OK */\n      swap6\n      pop\n        /* \"src/bonding-curves/LinearCurve.sol\":4171:6387  {... */\n      pop\n        /* \"src/bonding-curves/LinearCurve.sol\":3765:6387  function getSellInfo(... */\n    tag_27:\n      swap6\n      pop\n      swap6\n      pop\n      swap6\n      pop\n      swap6\n      pop\n      swap6\n      swap1\n      pop\n      jump\t// out\n        /* \"src/bonding-curves/LinearCurve.sol\":1068:3705  function getBuyInfo(... */\n    tag_21:\n        /* \"src/bonding-curves/LinearCurve.sol\":1317:1328  Error error */\n      0x00\n        /* \"src/bonding-curves/LinearCurve.sol\":1342:1362  uint128 newSpotPrice */\n      dup1\n        /* \"src/bonding-curves/LinearCurve.sol\":1376:1392  uint128 newDelta */\n      0x00\n        /* \"src/bonding-curves/LinearCurve.sol\":1406:1424  uint256 inputValue */\n      dup1\n        /* \"src/bonding-curves/LinearCurve.sol\":1438:1457  uint256 protocolFee */\n      0x00\n        /* \"src/bonding-curves/LinearCurve.sol\":1549:1557  numItems */\n      dup8\n        /* \"src/bonding-curves/LinearCurve.sol\":1561:1562  0 */\n      0x00\n        /* \"src/bonding-curves/LinearCurve.sol\":1549:1562  numItems == 0 */\n      sub\n        /* \"src/bonding-curves/LinearCurve.sol\":1545:1632  if (numItems == 0) {... */\n      tag_54\n      jumpi\n      pop\n        /* \"src/bonding-curves/LinearCurve.sol\":1586:1608  Error.INVALID_NUMITEMS */\n      0x01\n      swap4\n      pop\n        /* \"src/bonding-curves/LinearCurve.sol\":1610:1611  0 */\n      0x00\n      swap3\n      pop\n      dup3\n      swap2\n      pop\n      dup2\n      swap1\n      pop\n      dup1\n        /* \"src/bonding-curves/LinearCurve.sol\":1578:1621  return (Error.INVALID_NUMITEMS, 0, 0, 0, 0) */\n      jump(tag_27)\n        /* \"src/bonding-curves/LinearCurve.sol\":1545:1632  if (numItems == 0) {... */\n    tag_54:\n        /* \"src/bonding-curves/LinearCurve.sol\":1728:1749  uint256 newSpotPrice_ */\n      0x00\n        /* \"src/bonding-curves/LinearCurve.sol\":1764:1780  delta * numItems */\n      tag_55\n        /* \"src/bonding-curves/LinearCurve.sol\":1772:1780  numItems */\n      dup10\n      sub(shl(0x80, 0x01), 0x01)\n        /* \"src/bonding-curves/LinearCurve.sol\":1764:1780  delta * numItems */\n      dup13\n      and\n      tag_30\n      jump\t// in\n    tag_55:\n        /* \"src/bonding-curves/LinearCurve.sol\":1752:1780  spotPrice + delta * numItems */\n      tag_56\n      swap1\n      sub(shl(0x80, 0x01), 0x01)\n      dup14\n      and\n      tag_57\n      jump\t// in\n    tag_56:\n        /* \"src/bonding-curves/LinearCurve.sol\":1728:1780  uint256 newSpotPrice_ = spotPrice + delta * numItems */\n      swap1\n      pop\n      sub(shl(0x80, 0x01), 0x01)\n        /* \"src/bonding-curves/LinearCurve.sol\":1794:1827  newSpotPrice_ > type(uint128).max */\n      dup2\n      gt\n        /* \"src/bonding-curves/LinearCurve.sol\":1790:1900  if (newSpotPrice_ > type(uint128).max) {... */\n      iszero\n      tag_58\n      jumpi\n        /* \"src/bonding-curves/LinearCurve.sol\":1851:1876  Error.SPOT_PRICE_OVERFLOW */\n      0x02\n        /* \"src/bonding-curves/LinearCurve.sol\":1878:1879  0 */\n      0x00\n        /* \"src/bonding-curves/LinearCurve.sol\":1881:1882  0 */\n      dup1\n        /* \"src/bonding-curves/LinearCurve.sol\":1884:1885  0 */\n      0x00\n        /* \"src/bonding-curves/LinearCurve.sol\":1887:1888  0 */\n      dup1\n        /* \"src/bonding-curves/LinearCurve.sol\":1843:1889  return (Error.SPOT_PRICE_OVERFLOW, 0, 0, 0, 0) */\n      swap6\n      pop\n      swap6\n      pop\n      swap6\n      pop\n      swap6\n      pop\n      swap6\n      pop\n      pop\n      jump(tag_27)\n        /* \"src/bonding-curves/LinearCurve.sol\":1790:1900  if (newSpotPrice_ > type(uint128).max) {... */\n    tag_58:\n        /* \"src/bonding-curves/LinearCurve.sol\":1932:1945  newSpotPrice_ */\n      swap4\n      pop\n      dup4\n        /* \"src/bonding-curves/LinearCurve.sol\":2583:2603  uint256 buySpotPrice */\n      0x00\n        /* \"src/bonding-curves/LinearCurve.sol\":2606:2623  spotPrice + delta */\n      tag_59\n        /* \"src/bonding-curves/LinearCurve.sol\":2618:2623  delta */\n      dup12\n        /* \"src/bonding-curves/LinearCurve.sol\":2606:2615  spotPrice */\n      dup14\n        /* \"src/bonding-curves/LinearCurve.sol\":2606:2623  spotPrice + delta */\n      tag_35\n      jump\t// in\n    tag_59:\n      sub(shl(0x80, 0x01), 0x01)\n        /* \"src/bonding-curves/LinearCurve.sol\":2583:2623  uint256 buySpotPrice = spotPrice + delta */\n      and\n      swap1\n      pop\n        /* \"src/bonding-curves/LinearCurve.sol\":3119:3120  2 */\n      0x02\n        /* \"src/bonding-curves/LinearCurve.sol\":3098:3103  delta */\n      dup12\n      sub(shl(0x80, 0x01), 0x01)\n        /* \"src/bonding-curves/LinearCurve.sol\":3070:3103  numItems * (numItems - 1) * delta */\n      and\n        /* \"src/bonding-curves/LinearCurve.sol\":3093:3094  1 */\n      0x01\n        /* \"src/bonding-curves/LinearCurve.sol\":3082:3090  numItems */\n      dup13\n        /* \"src/bonding-curves/LinearCurve.sol\":3082:3094  numItems - 1 */\n      tag_60\n      swap2\n      swap1\n      tag_40\n      jump\t// in\n    tag_60:\n        /* \"src/bonding-curves/LinearCurve.sol\":3070:3095  numItems * (numItems - 1) */\n      tag_61\n      swap1\n        /* \"src/bonding-curves/LinearCurve.sol\":3070:3078  numItems */\n      dup14\n        /* \"src/bonding-curves/LinearCurve.sol\":3070:3095  numItems * (numItems - 1) */\n      tag_30\n      jump\t// in\n    tag_61:\n        /* \"src/bonding-curves/LinearCurve.sol\":3070:3103  numItems * (numItems - 1) * delta */\n      tag_62\n      swap2\n      swap1\n      tag_30\n      jump\t// in\n    tag_62:\n        /* \"src/bonding-curves/LinearCurve.sol\":3069:3120  (numItems * (numItems - 1) * delta) /... */\n      tag_63\n      swap2\n      swap1\n      tag_44\n      jump\t// in\n    tag_63:\n        /* \"src/bonding-curves/LinearCurve.sol\":3019:3054  numItems *... */\n      tag_64\n        /* \"src/bonding-curves/LinearCurve.sol\":3042:3054  buySpotPrice */\n      dup3\n        /* \"src/bonding-curves/LinearCurve.sol\":3019:3027  numItems */\n      dup13\n        /* \"src/bonding-curves/LinearCurve.sol\":3019:3054  numItems *... */\n      tag_30\n      jump\t// in\n    tag_64:\n        /* \"src/bonding-curves/LinearCurve.sol\":3019:3120  numItems *... */\n      tag_65\n      swap2\n      swap1\n      tag_57\n      jump\t// in\n    tag_65:\n        /* \"src/bonding-curves/LinearCurve.sol\":2994:3120  inputValue =... */\n      swap4\n      pop\n        /* \"src/bonding-curves/LinearCurve.sol\":3222:3317  inputValue.fmul(... */\n      tag_66\n        /* \"src/bonding-curves/LinearCurve.sol\":2994:3120  inputValue =... */\n      dup5\n        /* \"src/bonding-curves/LinearCurve.sol\":3251:3272  protocolFeeMultiplier */\n      dup10\n        /* \"lib/solmate/src/utils/FixedPointMathLib.sol\":636:640  1e18 */\n      0x0de0b6b3a7640000\n        /* \"src/bonding-curves/LinearCurve.sol\":3222:3237  inputValue.fmul */\n      tag_48\n        /* \"src/bonding-curves/LinearCurve.sol\":3222:3317  inputValue.fmul(... */\n      jump\t// in\n    tag_66:\n        /* \"src/bonding-curves/LinearCurve.sol\":3208:3317  protocolFee = inputValue.fmul(... */\n      swap3\n      pop\n        /* \"src/bonding-curves/LinearCurve.sol\":3401:3454  inputValue.fmul(feeMultiplier, FixedPointMathLib.WAD) */\n      tag_67\n        /* \"src/bonding-curves/LinearCurve.sol\":3401:3411  inputValue */\n      dup5\n        /* \"src/bonding-curves/LinearCurve.sol\":3417:3430  feeMultiplier */\n      dup11\n        /* \"lib/solmate/src/utils/FixedPointMathLib.sol\":636:640  1e18 */\n      0x0de0b6b3a7640000\n        /* \"src/bonding-curves/LinearCurve.sol\":3401:3416  inputValue.fmul */\n      tag_48\n        /* \"src/bonding-curves/LinearCurve.sol\":3401:3454  inputValue.fmul(feeMultiplier, FixedPointMathLib.WAD) */\n      jump\t// in\n    tag_67:\n        /* \"src/bonding-curves/LinearCurve.sol\":3387:3454  inputValue += inputValue.fmul(feeMultiplier, FixedPointMathLib.WAD) */\n      tag_68\n      swap1\n      dup6\n      tag_57\n      jump\t// in\n    tag_68:\n      swap4\n      pop\n        /* \"src/bonding-curves/LinearCurve.sol\":3526:3551  inputValue += protocolFee */\n      tag_69\n        /* \"src/bonding-curves/LinearCurve.sol\":3540:3551  protocolFee */\n      dup4\n        /* \"src/bonding-curves/LinearCurve.sol\":3387:3454  inputValue += inputValue.fmul(feeMultiplier, FixedPointMathLib.WAD) */\n      dup6\n        /* \"src/bonding-curves/LinearCurve.sol\":3526:3551  inputValue += protocolFee */\n      tag_57\n      jump\t// in\n    tag_69:\n        /* \"src/bonding-curves/LinearCurve.sol\":3690:3698  Error.OK */\n      0x00\n      swap14\n        /* \"src/bonding-curves/LinearCurve.sol\":1068:3705  function getBuyInfo(... */\n      swap7\n      swap13\n      pop\n        /* \"src/bonding-curves/LinearCurve.sol\":3526:3551  inputValue += protocolFee */\n      swap10\n      pop\n        /* \"src/bonding-curves/LinearCurve.sol\":1068:3705  function getBuyInfo(... */\n      swap2\n      swap8\n      pop\n      swap4\n      swap6\n      pop\n      pop\n      pop\n      pop\n      pop\n      pop\n      jump\t// out\n        /* \"lib/solmate/src/utils/FixedPointMathLib.sol\":919:1421  function fmul(... */\n    tag_48:\n        /* \"lib/solmate/src/utils/FixedPointMathLib.sol\":1116:1125  mul(x, y) */\n      dup3\n      dup3\n      mul\n        /* \"lib/solmate/src/utils/FixedPointMathLib.sol\":1217:1226  iszero(x) */\n      dup4\n      iszero\n        /* \"lib/solmate/src/utils/FixedPointMathLib.sol\":1231:1240  div(z, x) */\n      dup5\n      dup3\n      div\n        /* \"lib/solmate/src/utils/FixedPointMathLib.sol\":1228:1244  eq(div(z, x), y) */\n      dup5\n      eq\n        /* \"lib/solmate/src/utils/FixedPointMathLib.sol\":1214:1245  or(iszero(x), eq(div(z, x), y)) */\n      or\n        /* \"lib/solmate/src/utils/FixedPointMathLib.sol\":1204:1291  if iszero(or(iszero(x), eq(div(z, x), y))) {... */\n      tag_72\n      jumpi\n        /* \"lib/solmate/src/utils/FixedPointMathLib.sol\":1275:1276  0 */\n      0x00\n        /* \"lib/solmate/src/utils/FixedPointMathLib.sol\":1272:1273  0 */\n      dup1\n        /* \"lib/solmate/src/utils/FixedPointMathLib.sol\":1265:1277  revert(0, 0) */\n      revert\n        /* \"lib/solmate/src/utils/FixedPointMathLib.sol\":1204:1291  if iszero(or(iszero(x), eq(div(z, x), y))) {... */\n    tag_72:\n        /* \"lib/solmate/src/utils/FixedPointMathLib.sol\":1389:1405  div(z, baseUnit) */\n      div\n      swap3\n        /* \"lib/solmate/src/utils/FixedPointMathLib.sol\":919:1421  function fmul(... */\n      swap2\n      pop\n      pop\n      jump\t// out\n        /* \"#utility.yul\":14:202   */\n    tag_73:\n        /* \"#utility.yul\":82:102   */\n      dup1\n      calldataload\n      sub(shl(0x80, 0x01), 0x01)\n        /* \"#utility.yul\":131:177   */\n      dup2\n      and\n        /* \"#utility.yul\":121:178   */\n      dup2\n      eq\n        /* \"#utility.yul\":111:196   */\n      tag_78\n      jumpi\n        /* \"#utility.yul\":192:193   */\n      0x00\n        /* \"#utility.yul\":189:190   */\n      dup1\n        /* \"#utility.yul\":182:194   */\n      revert\n        /* \"#utility.yul\":111:196   */\n    tag_78:\n        /* \"#utility.yul\":14:202   */\n      swap2\n      swap1\n      pop\n      jump\t// out\n        /* \"#utility.yul\":207:673   */\n    tag_9:\n        /* \"#utility.yul\":302:308   */\n      0x00\n        /* \"#utility.yul\":310:316   */\n      dup1\n        /* \"#utility.yul\":318:324   */\n      0x00\n        /* \"#utility.yul\":326:332   */\n      dup1\n        /* \"#utility.yul\":334:340   */\n      0x00\n        /* \"#utility.yul\":387:390   */\n      0xa0\n        /* \"#utility.yul\":375:384   */\n      dup7\n        /* \"#utility.yul\":366:373   */\n      dup9\n        /* \"#utility.yul\":362:385   */\n      sub\n        /* \"#utility.yul\":358:391   */\n      slt\n        /* \"#utility.yul\":355:408   */\n      iszero\n      tag_80\n      jumpi\n        /* \"#utility.yul\":404:405   */\n      0x00\n        /* \"#utility.yul\":401:402   */\n      dup1\n        /* \"#utility.yul\":394:406   */\n      revert\n        /* \"#utility.yul\":355:408   */\n    tag_80:\n        /* \"#utility.yul\":427:456   */\n      tag_81\n        /* \"#utility.yul\":446:455   */\n      dup7\n        /* \"#utility.yul\":427:456   */\n      tag_73\n      jump\t// in\n    tag_81:\n        /* \"#utility.yul\":417:456   */\n      swap5\n      pop\n        /* \"#utility.yul\":475:513   */\n      tag_82\n        /* \"#utility.yul\":509:511   */\n      0x20\n        /* \"#utility.yul\":498:507   */\n      dup8\n        /* \"#utility.yul\":494:512   */\n      add\n        /* \"#utility.yul\":475:513   */\n      tag_73\n      jump\t// in\n    tag_82:\n        /* \"#utility.yul\":207:673   */\n      swap5\n      swap8\n        /* \"#utility.yul\":465:513   */\n      swap5\n      swap7\n      pop\n      pop\n      pop\n      pop\n        /* \"#utility.yul\":560:562   */\n      0x40\n        /* \"#utility.yul\":545:563   */\n      dup4\n      add\n        /* \"#utility.yul\":532:564   */\n      calldataload\n      swap3\n        /* \"#utility.yul\":611:613   */\n      0x60\n        /* \"#utility.yul\":596:614   */\n      dup2\n      add\n        /* \"#utility.yul\":583:615   */\n      calldataload\n      swap3\n        /* \"#utility.yul\":662:665   */\n      0x80\n        /* \"#utility.yul\":647:666   */\n      swap1\n      swap2\n      add\n        /* \"#utility.yul\":634:667   */\n      calldataload\n      swap2\n      pop\n        /* \"#utility.yul\":207:673   */\n      jump\t// out\n        /* \"#utility.yul\":678:1372   */\n    tag_12:\n        /* \"#utility.yul\":931:934   */\n      0xa0\n        /* \"#utility.yul\":916:935   */\n      dup2\n      add\n        /* \"#utility.yul\":965:966   */\n      0x03\n        /* \"#utility.yul\":954:967   */\n      dup8\n      lt\n        /* \"#utility.yul\":944:1088   */\n      tag_84\n      jumpi\n        /* \"#utility.yul\":1010:1020   */\n      0x4e487b71\n        /* \"#utility.yul\":1005:1008   */\n      0xe0\n        /* \"#utility.yul\":1001:1021   */\n      shl\n        /* \"#utility.yul\":998:999   */\n      0x00\n        /* \"#utility.yul\":991:1022   */\n      mstore\n        /* \"#utility.yul\":1045:1049   */\n      0x21\n        /* \"#utility.yul\":1042:1043   */\n      0x04\n        /* \"#utility.yul\":1035:1050   */\n      mstore\n        /* \"#utility.yul\":1073:1077   */\n      0x24\n        /* \"#utility.yul\":1070:1071   */\n      0x00\n        /* \"#utility.yul\":1063:1078   */\n      revert\n        /* \"#utility.yul\":944:1088   */\n    tag_84:\n        /* \"#utility.yul\":1097:1122   */\n      swap6\n      dup2\n      mstore\n      sub(shl(0x80, 0x01), 0x01)\n        /* \"#utility.yul\":1211:1226   */\n      swap5\n      dup6\n      and\n        /* \"#utility.yul\":1206:1208   */\n      0x20\n        /* \"#utility.yul\":1191:1209   */\n      dup3\n      add\n        /* \"#utility.yul\":1184:1227   */\n      mstore\n        /* \"#utility.yul\":1263:1278   */\n      swap3\n      swap1\n      swap4\n      and\n        /* \"#utility.yul\":1258:1260   */\n      0x40\n        /* \"#utility.yul\":1243:1261   */\n      dup4\n      add\n        /* \"#utility.yul\":1236:1279   */\n      mstore\n        /* \"#utility.yul\":1310:1312   */\n      0x60\n        /* \"#utility.yul\":1295:1313   */\n      dup3\n      add\n        /* \"#utility.yul\":1288:1322   */\n      mstore\n        /* \"#utility.yul\":1353:1356   */\n      0x80\n        /* \"#utility.yul\":1338:1357   */\n      add\n        /* \"#utility.yul\":1331:1366   */\n      mstore\n        /* \"#utility.yul\":678:1372   */\n      swap1\n      jump\t// out\n        /* \"#utility.yul\":1377:1563   */\n    tag_15:\n        /* \"#utility.yul\":1436:1442   */\n      0x00\n        /* \"#utility.yul\":1489:1491   */\n      0x20\n        /* \"#utility.yul\":1477:1486   */\n      dup3\n        /* \"#utility.yul\":1468:1475   */\n      dup5\n        /* \"#utility.yul\":1464:1487   */\n      sub\n        /* \"#utility.yul\":1460:1492   */\n      slt\n        /* \"#utility.yul\":1457:1509   */\n      iszero\n      tag_86\n      jumpi\n        /* \"#utility.yul\":1505:1506   */\n      0x00\n        /* \"#utility.yul\":1502:1503   */\n      dup1\n        /* \"#utility.yul\":1495:1507   */\n      revert\n        /* \"#utility.yul\":1457:1509   */\n    tag_86:\n        /* \"#utility.yul\":1528:1557   */\n      tag_87\n        /* \"#utility.yul\":1547:1556   */\n      dup3\n        /* \"#utility.yul\":1528:1557   */\n      tag_73\n      jump\t// in\n    tag_87:\n        /* \"#utility.yul\":1518:1557   */\n      swap4\n        /* \"#utility.yul\":1377:1563   */\n      swap3\n      pop\n      pop\n      pop\n      jump\t// out\n        /* \"#utility.yul\":1760:1887   */\n    tag_74:\n        /* \"#utility.yul\":1821:1831   */\n      0x4e487b71\n        /* \"#utility.yul\":1816:1819   */\n      0xe0\n        /* \"#utility.yul\":1812:1832   */\n      shl\n        /* \"#utility.yul\":1809:1810   */\n      0x00\n        /* \"#utility.yul\":1802:1833   */\n      mstore\n        /* \"#utility.yul\":1852:1856   */\n      0x11\n        /* \"#utility.yul\":1849:1850   */\n      0x04\n        /* \"#utility.yul\":1842:1857   */\n      mstore\n        /* \"#utility.yul\":1876:1880   */\n      0x24\n        /* \"#utility.yul\":1873:1874   */\n      0x00\n        /* \"#utility.yul\":1866:1881   */\n      revert\n        /* \"#utility.yul\":1892:2060   */\n    tag_30:\n        /* \"#utility.yul\":1965:1974   */\n      dup1\n      dup3\n      mul\n        /* \"#utility.yul\":1996:2005   */\n      dup2\n      iszero\n        /* \"#utility.yul\":2013:2028   */\n      dup3\n      dup3\n      div\n        /* \"#utility.yul\":2007:2029   */\n      dup5\n      eq\n        /* \"#utility.yul\":1993:2030   */\n      or\n        /* \"#utility.yul\":1983:2054   */\n      tag_92\n      jumpi\n        /* \"#utility.yul\":2034:2052   */\n      tag_92\n      tag_74\n      jump\t// in\n    tag_92:\n        /* \"#utility.yul\":1892:2060   */\n      swap3\n      swap2\n      pop\n      pop\n      jump\t// out\n        /* \"#utility.yul\":2065:2192   */\n    tag_75:\n        /* \"#utility.yul\":2126:2136   */\n      0x4e487b71\n        /* \"#utility.yul\":2121:2124   */\n      0xe0\n        /* \"#utility.yul\":2117:2137   */\n      shl\n        /* \"#utility.yul\":2114:2115   */\n      0x00\n        /* \"#utility.yul\":2107:2138   */\n      mstore\n        /* \"#utility.yul\":2157:2161   */\n      0x12\n        /* \"#utility.yul\":2154:2155   */\n      0x04\n        /* \"#utility.yul\":2147:2162   */\n      mstore\n        /* \"#utility.yul\":2181:2185   */\n      0x24\n        /* \"#utility.yul\":2178:2179   */\n      0x00\n        /* \"#utility.yul\":2171:2186   */\n      revert\n        /* \"#utility.yul\":2197:2413   */\n    tag_33:\n        /* \"#utility.yul\":2237:2238   */\n      0x00\n      sub(shl(0x80, 0x01), 0x01)\n        /* \"#utility.yul\":2324:2326   */\n      dup1\n        /* \"#utility.yul\":2321:2322   */\n      dup5\n        /* \"#utility.yul\":2317:2327   */\n      and\n        /* \"#utility.yul\":2346:2349   */\n      dup1\n        /* \"#utility.yul\":2336:2373   */\n      tag_96\n      jumpi\n        /* \"#utility.yul\":2353:2371   */\n      tag_96\n      tag_75\n      jump\t// in\n    tag_96:\n        /* \"#utility.yul\":2391:2401   */\n      swap3\n      and\n        /* \"#utility.yul\":2387:2407   */\n      swap2\n      swap1\n      swap2\n      div\n      swap3\n        /* \"#utility.yul\":2197:2413   */\n      swap2\n      pop\n      pop\n      jump\t// out\n        /* \"#utility.yul\":2418:2615   */\n    tag_35:\n      sub(shl(0x80, 0x01), 0x01)\n        /* \"#utility.yul\":2540:2550   */\n      dup2\n      dup2\n      and\n        /* \"#utility.yul\":2552:2562   */\n      dup4\n      dup3\n      and\n        /* \"#utility.yul\":2536:2563   */\n      add\n      swap1\n        /* \"#utility.yul\":2575:2586   */\n      dup1\n      dup3\n      gt\n        /* \"#utility.yul\":2572:2609   */\n      iszero\n      tag_99\n      jumpi\n        /* \"#utility.yul\":2589:2607   */\n      tag_99\n      tag_74\n      jump\t// in\n    tag_99:\n        /* \"#utility.yul\":2572:2609   */\n      pop\n        /* \"#utility.yul\":2418:2615   */\n      swap3\n      swap2\n      pop\n      pop\n      jump\t// out\n        /* \"#utility.yul\":2620:2820   */\n    tag_38:\n      sub(shl(0x80, 0x01), 0x01)\n        /* \"#utility.yul\":2756:2766   */\n      dup3\n      dup2\n      and\n        /* \"#utility.yul\":2744:2754   */\n      dup3\n      dup3\n      and\n        /* \"#utility.yul\":2740:2767   */\n      sub\n      swap1\n        /* \"#utility.yul\":2779:2791   */\n      dup1\n      dup3\n      gt\n        /* \"#utility.yul\":2776:2814   */\n      iszero\n      tag_99\n      jumpi\n        /* \"#utility.yul\":2794:2812   */\n      tag_99\n      tag_74\n      jump\t// in\n        /* \"#utility.yul\":2825:2953   */\n    tag_40:\n        /* \"#utility.yul\":2892:2901   */\n      dup2\n      dup2\n      sub\n        /* \"#utility.yul\":2913:2924   */\n      dup2\n      dup2\n      gt\n        /* \"#utility.yul\":2910:2947   */\n      iszero\n      tag_92\n      jumpi\n        /* \"#utility.yul\":2927:2945   */\n      tag_92\n      tag_74\n      jump\t// in\n        /* \"#utility.yul\":2958:3078   */\n    tag_44:\n        /* \"#utility.yul\":2998:2999   */\n      0x00\n        /* \"#utility.yul\":3024:3025   */\n      dup3\n        /* \"#utility.yul\":3014:3049   */\n      tag_108\n      jumpi\n        /* \"#utility.yul\":3029:3047   */\n      tag_108\n      tag_75\n      jump\t// in\n    tag_108:\n      pop\n        /* \"#utility.yul\":3063:3072   */\n      div\n      swap1\n        /* \"#utility.yul\":2958:3078   */\n      jump\t// out\n        /* \"#utility.yul\":3083:3208   */\n    tag_57:\n        /* \"#utility.yul\":3148:3157   */\n      dup1\n      dup3\n      add\n        /* \"#utility.yul\":3169:3179   */\n      dup1\n      dup3\n      gt\n        /* \"#utility.yul\":3166:3202   */\n      iszero\n      tag_92\n      jumpi\n        /* \"#utility.yul\":3182:3200   */\n      tag_92\n      tag_74\n      jump\t// in\n\n    auxdata: 0xa2646970667358221220e59035fcea5326de2b6377b4d0a29fedcd102c11bd2808612fe193c1e0a3eb2164736f6c63430008110033\n}\n",
				"bytecode": {
					"linkReferences": {},
					"object": "608060405234801561001057600080fd5b5061052b806100206000396000f3fe608060405234801561001057600080fd5b506004361061004c5760003560e01c8063097cc63d146100515780630ae67ccc1461007e5780637ca542ac146100a2578063a1bbb2e81461007e575b600080fd5b61006461005f36600461034c565b6100b5565b604051610075959493929190610399565b60405180910390f35b61009261008c3660046103e3565b50600190565b6040519015158152602001610075565b6100646100b036600461034c565b6101e5565b6000806000806000876000036100da57506001935060009250829150819050806101d8565b60006100ef896001600160801b038c1661041b565b9050808b6001600160801b0316101561012e5760009450846101118b8d61044e565b61011c906001610474565b6001600160801b0316995061013b9050565b610138818c61049b565b94505b60026001600160801b038b1661015260018c6104bb565b61015c908c61041b565b610166919061041b565b61017091906104ce565b6101836001600160801b038d168b61041b565b61018d91906104bb565b92506101a28388670de0b6b3a7640000610315565b91506101b78389670de0b6b3a7640000610315565b6101c190846104bb565b92506101cd82846104bb565b925089935060009550505b9550955095509550959050565b60008060008060008760000361020a57506001935060009250829150819050806101d8565b600061021f896001600160801b038c1661041b565b610232906001600160801b038d166104e2565b90506001600160801b0381111561025b57600260008060008095509550955095509550506101d8565b935083600061026a8b8d610474565b6001600160801b0316905060028b6001600160801b031660018c61028e91906104bb565b610298908d61041b565b6102a2919061041b565b6102ac91906104ce565b6102b6828c61041b565b6102c091906104e2565b93506102d58489670de0b6b3a7640000610315565b92506102ea848a670de0b6b3a7640000610315565b6102f490856104e2565b935061030083856104e2565b60009d969c5099509197509395505050505050565b828202831584820484141761032957600080fd5b0492915050565b80356001600160801b038116811461034757600080fd5b919050565b600080600080600060a0868803121561036457600080fd5b61036d86610330565b945061037b60208701610330565b94979496505050506040830135926060810135926080909101359150565b60a08101600387106103bb57634e487b7160e01b600052602160045260246000fd5b9581526001600160801b03948516602082015292909316604083015260608201526080015290565b6000602082840312156103f557600080fd5b6103fe82610330565b9392505050565b634e487b7160e01b600052601160045260246000fd5b808202811582820484141761043257610432610405565b92915050565b634e487b7160e01b600052601260045260246000fd5b60006001600160801b038084168061046857610468610438565b92169190910492915050565b6001600160801b0381811683821601908082111561049457610494610405565b5092915050565b6001600160801b0382811682821603908082111561049457610494610405565b8181038181111561043257610432610405565b6000826104dd576104dd610438565b500490565b808201808211156104325761043261040556fea2646970667358221220e59035fcea5326de2b6377b4d0a29fedcd102c11bd2808612fe193c1e0a3eb2164736f6c63430008110033",
					"opcodes": "PUSH1 0x80 PUSH1 0x40 MSTORE CALLVALUE DUP1 ISZERO PUSH2 0x10 JUMPI PUSH1 0x0 DUP1 REVERT JUMPDEST POP PUSH2 0x52B DUP1 PUSH2 0x20 PUSH1 0x0 CODECOPY PUSH1 0x0 RETURN INVALID PUSH1 0x80 PUSH1 0x40 MSTORE CALLVALUE DUP1 ISZERO PUSH2 0x10 JUMPI PUSH1 0x0 DUP1 REVERT JUMPDEST POP PUSH1 0x4 CALLDATASIZE LT PUSH2 0x4C JUMPI PUSH1 0x0 CALLDATALOAD PUSH1 0xE0 SHR DUP1 PUSH4 0x97CC63D EQ PUSH2 0x51 JUMPI DUP1 PUSH4 0xAE67CCC EQ PUSH2 0x7E JUMPI DUP1 PUSH4 0x7CA542AC EQ PUSH2 0xA2 JUMPI DUP1 PUSH4 0xA1BBB2E8 EQ PUSH2 0x7E JUMPI JUMPDEST PUSH1 0x0 DUP1 REVERT JUMPDEST PUSH2 0x64 PUSH2 0x5F CALLDATASIZE PUSH1 0x4 PUSH2 0x34C JUMP JUMPDEST PUSH2 0xB5 JUMP JUMPDEST PUSH1 0x40 MLOAD PUSH2 0x75 SWAP6 SWAP5 SWAP4 SWAP3 SWAP2 SWAP1 PUSH2 0x399 JUMP JUMPDEST PUSH1 0x40 MLOAD DUP1 SWAP2 SUB SWAP1 RETURN JUMPDEST PUSH2 0x92 PUSH2 0x8C CALLDATASIZE PUSH1 0x4 PUSH2 0x3E3 JUMP JUMPDEST POP PUSH1 0x1 SWAP1 JUMP JUMPDEST PUSH1 0x40 MLOAD SWAP1 ISZERO ISZERO DUP2 MSTORE PUSH1 0x20 ADD PUSH2 0x75 JUMP JUMPDEST PUSH2 0x64 PUSH2 0xB0 CALLDATASIZE PUSH1 0x4 PUSH2 0x34C JUMP JUMPDEST PUSH2 0x1E5 JUMP JUMPDEST PUSH1 0x0 DUP1 PUSH1 0x0 DUP1 PUSH1 0x0 DUP8 PUSH1 0x0 SUB PUSH2 0xDA JUMPI POP PUSH1 0x1 SWAP4 POP PUSH1 0x0 SWAP3 POP DUP3 SWAP2 POP DUP2 SWAP1 POP DUP1 PUSH2 0x1D8 JUMP JUMPDEST PUSH1 0x0 PUSH2 0xEF DUP10 PUSH1 0x1 PUSH1 0x1 PUSH1 0x80 SHL SUB DUP13 AND PUSH2 0x41B JUMP JUMPDEST SWAP1 POP DUP1 DUP12 PUSH1 0x1 PUSH1 0x1 PUSH1 0x80 SHL SUB AND LT ISZERO PUSH2 0x12E JUMPI PUSH1 0x0 SWAP5 POP DUP5 PUSH2 0x111 DUP12 DUP14 PUSH2 0x44E JUMP JUMPDEST PUSH2 0x11C SWAP1 PUSH1 0x1 PUSH2 0x474 JUMP JUMPDEST PUSH1 0x1 PUSH1 0x1 PUSH1 0x80 SHL SUB AND SWAP10 POP PUSH2 0x13B SWAP1 POP JUMP JUMPDEST PUSH2 0x138 DUP2 DUP13 PUSH2 0x49B JUMP JUMPDEST SWAP5 POP JUMPDEST PUSH1 0x2 PUSH1 0x1 PUSH1 0x1 PUSH1 0x80 SHL SUB DUP12 AND PUSH2 0x152 PUSH1 0x1 DUP13 PUSH2 0x4BB JUMP JUMPDEST PUSH2 0x15C SWAP1 DUP13 PUSH2 0x41B JUMP JUMPDEST PUSH2 0x166 SWAP2 SWAP1 PUSH2 0x41B JUMP JUMPDEST PUSH2 0x170 SWAP2 SWAP1 PUSH2 0x4CE JUMP JUMPDEST PUSH2 0x183 PUSH1 0x1 PUSH1 0x1 PUSH1 0x80 SHL SUB DUP14 AND DUP12 PUSH2 0x41B JUMP JUMPDEST PUSH2 0x18D SWAP2 SWAP1 PUSH2 0x4BB JUMP JUMPDEST SWAP3 POP PUSH2 0x1A2 DUP4 DUP9 PUSH8 0xDE0B6B3A7640000 PUSH2 0x315 JUMP JUMPDEST SWAP2 POP PUSH2 0x1B7 DUP4 DUP10 PUSH8 0xDE0B6B3A7640000 PUSH2 0x315 JUMP JUMPDEST PUSH2 0x1C1 SWAP1 DUP5 PUSH2 0x4BB JUMP JUMPDEST SWAP3 POP PUSH2 0x1CD DUP3 DUP5 PUSH2 0x4BB JUMP JUMPDEST SWAP3 POP DUP10 SWAP4 POP PUSH1 0x0 SWAP6 POP POP JUMPDEST SWAP6 POP SWAP6 POP SWAP6 POP SWAP6 POP SWAP6 SWAP1 POP JUMP JUMPDEST PUSH1 0x0 DUP1 PUSH1 0x0 DUP1 PUSH1 0x0 DUP8 PUSH1 0x0 SUB PUSH2 0x20A JUMPI POP PUSH1 0x1 SWAP4 POP PUSH1 0x0 SWAP3 POP DUP3 SWAP2 POP DUP2 SWAP1 POP DUP1 PUSH2 0x1D8 JUMP JUMPDEST PUSH1 0x0 PUSH2 0x21F DUP10 PUSH1 0x1 PUSH1 0x1 PUSH1 0x80 SHL SUB DUP13 AND PUSH2 0x41B JUMP JUMPDEST PUSH2 0x232 SWAP1 PUSH1 0x1 PUSH1 0x1 PUSH1 0x80 SHL SUB DUP14 AND PUSH2 0x4E2 JUMP JUMPDEST SWAP1 POP PUSH1 0x1 PUSH1 0x1 PUSH1 0x80 SHL SUB DUP2 GT ISZERO PUSH2 0x25B JUMPI PUSH1 0x2 PUSH1 0x0 DUP1 PUSH1 0x0 DUP1 SWAP6 POP SWAP6 POP SWAP6 POP SWAP6 POP SWAP6 POP POP PUSH2 0x1D8 JUMP JUMPDEST SWAP4 POP DUP4 PUSH1 0x0 PUSH2 0x26A DUP12 DUP14 PUSH2 0x474 JUMP JUMPDEST PUSH1 0x1 PUSH1 0x1 PUSH1 0x80 SHL SUB AND SWAP1 POP PUSH1 0x2 DUP12 PUSH1 0x1 PUSH1 0x1 PUSH1 0x80 SHL SUB AND PUSH1 0x1 DUP13 PUSH2 0x28E SWAP2 SWAP1 PUSH2 0x4BB JUMP JUMPDEST PUSH2 0x298 SWAP1 DUP14 PUSH2 0x41B JUMP JUMPDEST PUSH2 0x2A2 SWAP2 SWAP1 PUSH2 0x41B JUMP JUMPDEST PUSH2 0x2AC SWAP2 SWAP1 PUSH2 0x4CE JUMP JUMPDEST PUSH2 0x2B6 DUP3 DUP13 PUSH2 0x41B JUMP JUMPDEST PUSH2 0x2C0 SWAP2 SWAP1 PUSH2 0x4E2 JUMP JUMPDEST SWAP4 POP PUSH2 0x2D5 DUP5 DUP10 PUSH8 0xDE0B6B3A7640000 PUSH2 0x315 JUMP JUMPDEST SWAP3 POP PUSH2 0x2EA DUP5 DUP11 PUSH8 0xDE0B6B3A7640000 PUSH2 0x315 JUMP JUMPDEST PUSH2 0x2F4 SWAP1 DUP6 PUSH2 0x4E2 JUMP JUMPDEST SWAP4 POP PUSH2 0x300 DUP4 DUP6 PUSH2 0x4E2 JUMP JUMPDEST PUSH1 0x0 SWAP14 SWAP7 SWAP13 POP SWAP10 POP SWAP2 SWAP8 POP SWAP4 SWAP6 POP POP POP POP POP POP JUMP JUMPDEST DUP3 DUP3 MUL DUP4 ISZERO DUP5 DUP3 DIV DUP5 EQ OR PUSH2 0x329 JUMPI PUSH1 0x0 DUP1 REVERT JUMPDEST DIV SWAP3 SWAP2 POP POP JUMP JUMPDEST DUP1 CALLDATALOAD PUSH1 0x1 PUSH1 0x1 PUSH1 0x80 SHL SUB DUP2 AND DUP2 EQ PUSH2 0x347 JUMPI PUSH1 0x0 DUP1 REVERT JUMPDEST SWAP2 SWAP1 POP JUMP JUMPDEST PUSH1 0x0 DUP1 PUSH1 0x0 DUP1 PUSH1 0x0 PUSH1 0xA0 DUP7 DUP9 SUB SLT ISZERO PUSH2 0x364 JUMPI PUSH1 0x0 DUP1 REVERT JUMPDEST PUSH2 0x36D DUP7 PUSH2 0x330 JUMP JUMPDEST SWAP5 POP PUSH2 0x37B PUSH1 0x20 DUP8 ADD PUSH2 0x330 JUMP JUMPDEST SWAP5 SWAP8 SWAP5 SWAP7 POP POP POP POP PUSH1 0x40 DUP4 ADD CALLDATALOAD SWAP3 PUSH1 0x60 DUP2 ADD CALLDATALOAD SWAP3 PUSH1 0x80 SWAP1 SWAP2 ADD CALLDATALOAD SWAP2 POP JUMP JUMPDEST PUSH1 0xA0 DUP2 ADD PUSH1 0x3 DUP8 LT PUSH2 0x3BB JUMPI PUSH4 0x4E487B71 PUSH1 0xE0 SHL PUSH1 0x0 MSTORE PUSH1 0x21 PUSH1 0x4 MSTORE PUSH1 0x24 PUSH1 0x0 REVERT JUMPDEST SWAP6 DUP2 MSTORE PUSH1 0x1 PUSH1 0x1 PUSH1 0x80 SHL SUB SWAP5 DUP6 AND PUSH1 0x20 DUP3 ADD MSTORE SWAP3 SWAP1 SWAP4 AND PUSH1 0x40 DUP4 ADD MSTORE PUSH1 0x60 DUP3 ADD MSTORE PUSH1 0x80 ADD MSTORE SWAP1 JUMP JUMPDEST PUSH1 0x0 PUSH1 0x20 DUP3 DUP5 SUB SLT ISZERO PUSH2 0x3F5 JUMPI PUSH1 0x0 DUP1 REVERT JUMPDEST PUSH2 0x3FE DUP3 PUSH2 0x330 JUMP JUMPDEST SWAP4 SWAP3 POP POP POP JUMP JUMPDEST PUSH4 0x4E487B71 PUSH1 0xE0 SHL PUSH1 0x0 MSTORE PUSH1 0x11 PUSH1 0x4 MSTORE PUSH1 0x24 PUSH1 0x0 REVERT JUMPDEST DUP1 DUP3 MUL DUP2 ISZERO DUP3 DUP3 DIV DUP5 EQ OR PUSH2 0x432 JUMPI PUSH2 0x432 PUSH2 0x405 JUMP JUMPDEST SWAP3 SWAP2 POP POP JUMP JUMPDEST PUSH4 0x4E487B71 PUSH1 0xE0 SHL PUSH1 0x0 MSTORE PUSH1 0x12 PUSH1 0x4 MSTORE PUSH1 0x24 PUSH1 0x0 REVERT JUMPDEST PUSH1 0x0 PUSH1 0x1 PUSH1 0x1 PUSH1 0x80 SHL SUB DUP1 DUP5 AND DUP1 PUSH2 0x468 JUMPI PUSH2 0x468 PUSH2 0x438 JUMP JUMPDEST SWAP3 AND SWAP2 SWAP1 SWAP2 DIV SWAP3 SWAP2 POP POP JUMP JUMPDEST PUSH1 0x1 PUSH1 0x1 PUSH1 0x80 SHL SUB DUP2 DUP2 AND DUP4 DUP3 AND ADD SWAP1 DUP1 DUP3 GT ISZERO PUSH2 0x494 JUMPI PUSH2 0x494 PUSH2 0x405 JUMP JUMPDEST POP SWAP3 SWAP2 POP POP JUMP JUMPDEST PUSH1 0x1 PUSH1 0x1 PUSH1 0x80 SHL SUB DUP3 DUP2 AND DUP3 DUP3 AND SUB SWAP1 DUP1 DUP3 GT ISZERO PUSH2 0x494 JUMPI PUSH2 0x494 PUSH2 0x405 JUMP JUMPDEST DUP2 DUP2 SUB DUP2 DUP2 GT ISZERO PUSH2 0x432 JUMPI PUSH2 0x432 PUSH2 0x405 JUMP JUMPDEST PUSH1 0x0 DUP3 PUSH2 0x4DD JUMPI PUSH2 0x4DD PUSH2 0x438 JUMP JUMPDEST POP DIV SWAP1 JUMP JUMPDEST DUP1 DUP3 ADD DUP1 DUP3 GT ISZERO PUSH2 0x432 JUMPI PUSH2 0x432 PUSH2 0x405 JUMP INVALID LOG2 PUSH5 0x6970667358 0x22 SLT KECCAK256 0xE5 SWAP1 CALLDATALOAD 0xFC 0xEA MSTORE8 0x26 0xDE 0x2B PUSH4 0x77B4D0A2 SWAP16 0xED 0xCD LT 0x2C GT 0xBD 0x28 ADDMOD PUSH2 0x2FE1 SWAP4 0xC1 0xE0 LOG3 0xEB 0x21 PUSH5 0x736F6C6343 STOP ADDMOD GT STOP CALLER "
				},
				"gasEstimates": {
					"creation": {
						"codeDepositCost": "264600",
						"executionCost": "306",
						"totalCost": "264906"
					},
					"external": {
						"getBuyInfo(uint128,uint128,uint256,uint256,uint256)": "infinite",
						"getSellInfo(uint128,uint128,uint256,uint256,uint256)": "infinite",
						"validateDelta(uint128)": "361",
						"validateSpotPrice(uint128)": "405"
					}
				},
				"methodIdentifiers": {
					"getBuyInfo(uint128,uint128,uint256,uint256,uint256)": "7ca542ac",
					"getSellInfo(uint128,uint128,uint256,uint256,uint256)": "097cc63d",
					"validateDelta(uint128)": "0ae67ccc",
					"validateSpotPrice(uint128)": "a1bbb2e8"
				}
			},
			"storageLayout": {
				"storage": [],
				"types": null
			},
			"userdoc": {
				"kind": "user",
				"methods": {},
				"version": 1
			}
		}
	}
}